{
  "_format": "hh-sol-artifact-1",
  "contractName": "Todo",
  "sourceName": "contracts/Todo.sol",
  "abi": [
    {
      "anonymous": false,
      "inputs": [
        {
          "indexed": false,
          "internalType": "uint256",
          "name": "id",
          "type": "uint256"
        },
        {
          "indexed": false,
          "internalType": "string",
          "name": "content",
          "type": "string"
        }
      ],
      "name": "TaskCreated",
      "type": "event"
    },
    {
      "anonymous": false,
      "inputs": [
        {
          "indexed": false,
          "internalType": "uint256",
          "name": "id",
          "type": "uint256"
        }
      ],
      "name": "TaskDeleted",
      "type": "event"
    },
    {
      "inputs": [
        {
          "internalType": "string",
          "name": "_content",
          "type": "string"
        }
      ],
      "name": "createTask",
      "outputs": [],
      "stateMutability": "nonpayable",
      "type": "function"
    },
    {
      "inputs": [
        {
          "internalType": "uint256",
          "name": "_id",
          "type": "uint256"
        }
      ],
      "name": "deleteTask",
      "outputs": [],
      "stateMutability": "nonpayable",
      "type": "function"
    },
    {
      "inputs": [
        {
          "internalType": "uint256",
          "name": "_id",
          "type": "uint256"
        }
      ],
      "name": "getTask",
      "outputs": [
        {
          "components": [
            {
              "internalType": "uint256",
              "name": "id",
              "type": "uint256"
            },
            {
              "internalType": "string",
              "name": "content",
              "type": "string"
            },
            {
              "internalType": "enum Todo.TaskStatus",
              "name": "status",
              "type": "uint8"
            }
          ],
          "internalType": "struct Todo.Task",
          "name": "",
          "type": "tuple"
        }
      ],
      "stateMutability": "view",
      "type": "function"
    },
    {
      "inputs": [],
      "name": "taskCount",
      "outputs": [
        {
          "internalType": "uint256",
          "name": "",
          "type": "uint256"
        }
      ],
      "stateMutability": "view",
      "type": "function"
    },
    {
      "inputs": [
        {
          "internalType": "uint256",
          "name": "",
          "type": "uint256"
        }
      ],
      "name": "tasks",
      "outputs": [
        {
          "internalType": "uint256",
          "name": "id",
          "type": "uint256"
        },
        {
          "internalType": "string",
          "name": "content",
          "type": "string"
        },
        {
          "internalType": "enum Todo.TaskStatus",
          "name": "status",
          "type": "uint8"
        }
      ],
      "stateMutability": "view",
      "type": "function"
    }
  ],
  "bytecode": "0x608060405260008055348015601357600080fd5b50610e35806100236000396000f3fe608060405234801561001057600080fd5b50600436106100575760003560e01c8063111002aa1461005c5780631d65e77e14610078578063560f3192146100a85780638d977672146100c4578063b6cb58a5146100f6575b600080fd5b610076600480360381019061007191906106be565b610114565b005b610092600480360381019061008d919061073d565b610200565b60405161009f91906108bf565b60405180910390f35b6100c260048036038101906100bd919061073d565b61038e565b005b6100de60048036038101906100d9919061073d565b61046c565b6040516100ed93929190610949565b60405180910390f35b6100fe61052b565b60405161010b9190610987565b60405180910390f35b600080815480929190610126906109d1565b91905055506040518060600160405280600054815260200182815260200160006002811115610158576101576107f8565b5b815250600160008054815260200190815260200160002060008201518160000155602082015181600101908161018e9190610c25565b5060408201518160020160006101000a81548160ff021916908360028111156101ba576101b96107f8565b5b02179055509050507fa5ed9e6226c584326505694539c95cb0e3238ae09bcda5a65c00bbfdab1c6662600054826040516101f5929190610cf7565b60405180910390a150565b610208610531565b6000600281111561021c5761021b6107f8565b5b6001600084815260200190815260200160002060020160009054906101000a900460ff166002811115610252576102516107f8565b5b03610292576040517f08c379a000000000000000000000000000000000000000000000000000000000815260040161028990610d73565b60405180910390fd5b60016000838152602001908152602001600020604051806060016040529081600082015481526020016001820180546102ca90610a48565b80601f01602080910402602001604051908101604052809291908181526020018280546102f690610a48565b80156103435780601f1061031857610100808354040283529160200191610343565b820191906000526020600020905b81548152906001019060200180831161032657829003601f168201915b505050505081526020016002820160009054906101000a900460ff166002811115610371576103706107f8565b5b6002811115610383576103826107f8565b5b815250509050919050565b60006001600083815260200190815260200160002060010180546103b190610a48565b9050036103f3576040517f08c379a00000000000000000000000000000000000000000000000000000000081526004016103ea90610ddf565b60405180910390fd5b60026001600083815260200190815260200160002060020160006101000a81548160ff0219169083600281111561042d5761042c6107f8565b5b02179055507fd078b251d950cc55c44340be1db732337ef4939a76e1367ee271ad2cb19c46af816040516104619190610987565b60405180910390a150565b600160205280600052604060002060009150905080600001549080600101805461049590610a48565b80601f01602080910402602001604051908101604052809291908181526020018280546104c190610a48565b801561050e5780601f106104e35761010080835404028352916020019161050e565b820191906000526020600020905b8154815290600101906020018083116104f157829003601f168201915b5050505050908060020160009054906101000a900460ff16905083565b60005481565b604051806060016040528060008152602001606081526020016000600281111561055e5761055d6107f8565b5b81525090565b6000604051905090565b600080fd5b600080fd5b600080fd5b600080fd5b6000601f19601f8301169050919050565b7f4e487b7100000000000000000000000000000000000000000000000000000000600052604160045260246000fd5b6105cb82610582565b810181811067ffffffffffffffff821117156105ea576105e9610593565b5b80604052505050565b60006105fd610564565b905061060982826105c2565b919050565b600067ffffffffffffffff82111561062957610628610593565b5b61063282610582565b9050602081019050919050565b82818337600083830152505050565b600061066161065c8461060e565b6105f3565b90508281526020810184848401111561067d5761067c61057d565b5b61068884828561063f565b509392505050565b600082601f8301126106a5576106a4610578565b5b81356106b584826020860161064e565b91505092915050565b6000602082840312156106d4576106d361056e565b5b600082013567ffffffffffffffff8111156106f2576106f1610573565b5b6106fe84828501610690565b91505092915050565b6000819050919050565b61071a81610707565b811461072557600080fd5b50565b60008135905061073781610711565b92915050565b6000602082840312156107535761075261056e565b5b600061076184828501610728565b91505092915050565b61077381610707565b82525050565b600081519050919050565b600082825260208201905092915050565b60005b838110156107b3578082015181840152602081019050610798565b60008484015250505050565b60006107ca82610779565b6107d48185610784565b93506107e4818560208601610795565b6107ed81610582565b840191505092915050565b7f4e487b7100000000000000000000000000000000000000000000000000000000600052602160045260246000fd5b60038110610838576108376107f8565b5b50565b600081905061084982610827565b919050565b60006108598261083b565b9050919050565b6108698161084e565b82525050565b6000606083016000830151610887600086018261076a565b506020830151848203602086015261089f82826107bf565b91505060408301516108b46040860182610860565b508091505092915050565b600060208201905081810360008301526108d9818461086f565b905092915050565b6108ea81610707565b82525050565b600082825260208201905092915050565b600061090c82610779565b61091681856108f0565b9350610926818560208601610795565b61092f81610582565b840191505092915050565b6109438161084e565b82525050565b600060608201905061095e60008301866108e1565b81810360208301526109708185610901565b905061097f604083018461093a565b949350505050565b600060208201905061099c60008301846108e1565b92915050565b7f4e487b7100000000000000000000000000000000000000000000000000000000600052601160045260246000fd5b60006109dc82610707565b91507fffffffffffffffffffffffffffffffffffffffffffffffffffffffffffffffff8203610a0e57610a0d6109a2565b5b600182019050919050565b7f4e487b7100000000000000000000000000000000000000000000000000000000600052602260045260246000fd5b60006002820490506001821680610a6057607f821691505b602082108103610a7357610a72610a19565b5b50919050565b60008190508160005260206000209050919050565b60006020601f8301049050919050565b600082821b905092915050565b600060088302610adb7fffffffffffffffffffffffffffffffffffffffffffffffffffffffffffffffff82610a9e565b610ae58683610a9e565b95508019841693508086168417925050509392505050565b6000819050919050565b6000610b22610b1d610b1884610707565b610afd565b610707565b9050919050565b6000819050919050565b610b3c83610b07565b610b50610b4882610b29565b848454610aab565b825550505050565b600090565b610b65610b58565b610b70818484610b33565b505050565b5b81811015610b9457610b89600082610b5d565b600181019050610b76565b5050565b601f821115610bd957610baa81610a79565b610bb384610a8e565b81016020851015610bc2578190505b610bd6610bce85610a8e565b830182610b75565b50505b505050565b600082821c905092915050565b6000610bfc60001984600802610bde565b1980831691505092915050565b6000610c158383610beb565b9150826002028217905092915050565b610c2e82610779565b67ffffffffffffffff811115610c4757610c46610593565b5b610c518254610a48565b610c5c828285610b98565b600060209050601f831160018114610c8f5760008415610c7d578287015190505b610c878582610c09565b865550610cef565b601f198416610c9d86610a79565b60005b82811015610cc557848901518255600182019150602085019450602081019050610ca0565b86831015610ce25784890151610cde601f891682610beb565b8355505b6001600288020188555050505b505050505050565b6000604082019050610d0c60008301856108e1565b8181036020830152610d1e8184610901565b90509392505050565b7f5461736b206973206e6f7420696e202743726561746564272073746174757300600082015250565b6000610d5d601f836108f0565b9150610d6882610d27565b602082019050919050565b60006020820190508181036000830152610d8c81610d50565b9050919050565b7f5461736b20646f6573206e6f7420657869737400000000000000000000000000600082015250565b6000610dc96013836108f0565b9150610dd482610d93565b602082019050919050565b60006020820190508181036000830152610df881610dbc565b905091905056fea2646970667358221220266ab282a0b7745eff4ea940c2868daa8f6d13e8c17aecf686d03466e851214c64736f6c634300081b0033",
  "linkReferences": {},
  "deployedLinkReferences": {}
}